{
    "contractName": "GasStationFactory",
    "abi": [
        {
            "inputs": [
                {
                    "internalType": "address",
                    "name": "_owner",
                    "type": "address"
                },
                {
                    "internalType": "address",
                    "name": "_gasStation",
                    "type": "address"
                }
            ],
            "stateMutability": "nonpayable",
            "type": "constructor"
        },
        {
            "inputs": [],
            "name": "ECDSAInvalidSignature",
            "type": "error"
        },
        {
            "inputs": [
                {
                    "internalType": "uint256",
                    "name": "length",
                    "type": "uint256"
                }
            ],
            "name": "ECDSAInvalidSignatureLength",
            "type": "error"
        },
        {
            "inputs": [
                {
                    "internalType": "bytes32",
                    "name": "s",
                    "type": "bytes32"
                }
            ],
            "name": "ECDSAInvalidSignatureS",
            "type": "error"
        },
        {
            "anonymous": false,
            "inputs": [
                {
                    "indexed": true,
                    "internalType": "address",
                    "name": "previousGasStation",
                    "type": "address"
                },
                {
                    "indexed": true,
                    "internalType": "address",
                    "name": "newGasStation",
                    "type": "address"
                }
            ],
            "name": "GasStationChanged",
            "type": "event"
        },
        {
            "anonymous": false,
            "inputs": [
                {
                    "indexed": true,
                    "internalType": "address",
                    "name": "deployedAddress",
                    "type": "address"
                }
            ],
            "name": "MachineSmartAccountDeployed",
            "type": "event"
        },
        {
            "anonymous": false,
            "inputs": [
                {
                    "indexed": true,
                    "internalType": "address",
                    "name": "user",
                    "type": "address"
                },
                {
                    "indexed": true,
                    "internalType": "address",
                    "name": "relayer",
                    "type": "address"
                },
                {
                    "indexed": false,
                    "internalType": "address",
                    "name": "target",
                    "type": "address"
                },
                {
                    "indexed": false,
                    "internalType": "bytes",
                    "name": "functionCall",
                    "type": "bytes"
                }
            ],
            "name": "MetaTransactionExecuted",
            "type": "event"
        },
        {
            "inputs": [
                {
                    "internalType": "address",
                    "name": "newGasStation",
                    "type": "address"
                }
            ],
            "name": "changeGasStation",
            "outputs": [],
            "stateMutability": "nonpayable",
            "type": "function"
        },
        {
            "inputs": [
                {
                    "internalType": "address",
                    "name": "eoa",
                    "type": "address"
                },
                {
                    "internalType": "uint256",
                    "name": "nonce",
                    "type": "uint256"
                },
                {
                    "internalType": "bytes",
                    "name": "signature",
                    "type": "bytes"
                }
            ],
            "name": "deployMachineSmartAccount",
            "outputs": [
                {
                    "internalType": "address",
                    "name": "",
                    "type": "address"
                }
            ],
            "stateMutability": "nonpayable",
            "type": "function"
        },
        {
            "inputs": [
                {
                    "internalType": "address",
                    "name": "eoa",
                    "type": "address"
                },
                {
                    "internalType": "address",
                    "name": "machineAddress",
                    "type": "address"
                },
                {
                    "internalType": "address",
                    "name": "target",
                    "type": "address"
                },
                {
                    "internalType": "bytes",
                    "name": "data",
                    "type": "bytes"
                },
                {
                    "internalType": "uint256",
                    "name": "nonce",
                    "type": "uint256"
                },
                {
                    "internalType": "bytes",
                    "name": "signature",
                    "type": "bytes"
                },
                {
                    "internalType": "bytes",
                    "name": "eoaSignature",
                    "type": "bytes"
                }
            ],
            "name": "executeTransaction",
            "outputs": [],
            "stateMutability": "nonpayable",
            "type": "function"
        },
        {
            "inputs": [],
            "name": "gasStation",
            "outputs": [
                {
                    "internalType": "address",
                    "name": "",
                    "type": "address"
                }
            ],
            "stateMutability": "view",
            "type": "function"
        },
        {
            "inputs": [],
            "name": "owner",
            "outputs": [
                {
                    "internalType": "address",
                    "name": "",
                    "type": "address"
                }
            ],
            "stateMutability": "view",
            "type": "function"
        },
        {
            "inputs": [
                {
                    "internalType": "address",
                    "name": "newGasStationAddress",
                    "type": "address"
                },
                {
                    "internalType": "uint256",
                    "name": "nonce",
                    "type": "uint256"
                },
                {
                    "internalType": "bytes",
                    "name": "signature",
                    "type": "bytes"
                }
            ],
            "name": "transferGasStationBalance",
            "outputs": [],
            "stateMutability": "nonpayable",
            "type": "function"
        }
    ],
    "bytecode": "60803461013657601f6115ce38819003918201601f19168301916001600160401b0383118484101761013a57808492604094855283398101031261013657610052602061004b8361014e565b920161014e565b6001600160a01b039091169081156100f1576001600160a01b03169081156100a15760018060a01b03195f5416175f5560018060a01b0319600154161760015560405161146b90816101638239f35b60405162461bcd60e51b815260206004820152602260248201527f4761732073746174696f6e20616464726573732063616e6e6f74206265207a65604482015261726f60f01b6064820152608490fd5b60405162461bcd60e51b815260206004820152601c60248201527f4f776e657220616464726573732063616e6e6f74206265207a65726f000000006044820152606490fd5b5f80fd5b634e487b7160e01b5f52604160045260245ffd5b51906001600160a01b03821682036101365756fe60806040526004361015610011575f80fd5b5f5f3560e01c806302039bef146106d55780631d0aafe914610603578063471e60b7146104ef5780638da5cb5b146104c8578063b6c07f03146100875763dbb602fd1461005c575f80fd5b346100845780600319360112610084576001546040516001600160a01b039091168152602090f35b80fd5b50346102b25760e03660031901126102b2576100a1610889565b6024356001600160a01b038116908190036102b257604435916001600160a01b038316918284036102b25760643567ffffffffffffffff81116102b2576100ec90369060040161089f565b90926084359460a43567ffffffffffffffff81116102b25761011290369060040161089f565b9260c43567ffffffffffffffff81116102b25761013390369060040161089f565b600154919a9095916001600160a01b0316330361047357871561042e576101646001600160a01b0384161515610a83565b84156103e957610200938a936101fa92855f52600260205261018d60ff60405f2054161561096a565b6040519060208201923060601b84526bffffffffffffffffffffffff199060601b1660348301526bffffffffffffffffffffffff199060601b166048820152898c605c8301376101ef6020605c838d81018a83820152030180845201826109ab565b5190209236916109cd565b90610b02565b156103b057855f52600260205260405f20600160ff19825416179055610800811480156103a5575b801561039a575b6102b6575b833b156102b2576102875f968793610270996040519a8b998a988997630d88b34560e31b89526004890152608060248901526084880191610ae2565b926044860152600319858403016064860152610ae2565b03925af180156102a757610299575080f35b6102a591505f906109ab565b005b6040513d5f823e3d90fd5b5f80fd5b6040516370a0823160e01b8152600481018590526020816024816108095afa80156102a7575f90610360575b670494654067e100009150116102345760405163a9059cbb60e01b8152600481018590526706f05b59d3b2000060248201526020816044815f6108095af180156102a757610331575b50610234565b6103529060203d602011610359575b61034a81836109ab565b810190610a6b565b505f61032b565b503d610340565b506020813d602011610392575b8161037a602093836109ab565b810103126102b257670494654067e1000090516102e2565b3d915061036d565b50610801811461022f565b506108028114610228565b60405162461bcd60e51b8152602060048201526011602482015270496e76616c6964207369676e617475726560781b6044820152606490fd5b60405162461bcd60e51b815260206004820152601d60248201527f54617267657420616464726573732063616e6e6f74206265207a65726f0000006044820152606490fd5b60405162461bcd60e51b815260206004820152601e60248201527f4d616368696e6520616464726573732063616e6e6f74206265207a65726f00006044820152606490fd5b60405162461bcd60e51b815260206004820152602760248201527f4f6e6c79206761732073746174696f6e2063616e2063616c6c207468697320666044820152663ab731ba34b7b760c91b6064820152608490fd5b346102b2575f3660031901126102b2575f546040516001600160a01b039091168152602090f35b346102b2576101fa610562610567610506366108cd565b6001600160a01b038416969295938693919290610524891515610a83565b6040516bffffffffffffffffffffffff1930606090811b82166020840190815293901b166034820152604880820187905281526101ef6068826109ab565b610a13565b5f52600260205260405f20600160ff198254161790556040519061079780830183811067ffffffffffffffff8211176105ef576040928492610c9f843981523060208201520301905ff080156102a7576040516020916001600160a01b0316807f437b0f498ec98a9c0806db0a647e9a775919e80cdaff191d79b0e1058642d3c95f80a28152f35b634e487b7160e01b5f52604160045260245ffd5b346102b25760203660031901126102b25761061c610889565b61063060018060a01b035f54163314610914565b6001600160a01b0316801561068157600154816001600160a01b0382167f450b41443a2a1a4bcf494878e9392cca27d7663b235ddc90bc132e1f4174e5595f80a36001600160a01b03191617600155005b60405162461bcd60e51b815260206004820152602660248201527f4e6577206761732073746174696f6e20616464726573732063616e6e6f74206260448201526565207a65726f60d01b6064820152608490fd5b346102b2576106e3366108cd565b90926106f960018060a01b035f54163314610914565b6001600160a01b03811693841561083557610730926101fa859261056294845f52600260205261052460ff60405f2054161561096a565b5f52600260205260405f20600160ff198254161790556040516370a0823160e01b81523060048201526020816024816108095afa9081156102a7575f91610803575b506040519163a9059cbb60e01b8352600483015260248201526020816044815f6108095af19081156102a7575f916107e4575b50156107ad57005b60405162461bcd60e51b815260206004820152600f60248201526e151c985b9cd9995c8819985a5b1959608a1b6044820152606490fd5b6107fd915060203d6020116103595761034a81836109ab565b816107a5565b90506020813d60201161082d575b8161081e602093836109ab565b810103126102b2575182610772565b3d9150610811565b60405162461bcd60e51b815260206004820152602660248201527f4e6577204761732053746174696f6e20616464726573732063616e6e6f74206260448201526565207a65726f60d01b6064820152608490fd5b600435906001600160a01b03821682036102b257565b9181601f840112156102b25782359167ffffffffffffffff83116102b257602083818601950101116102b257565b60606003198201126102b2576004356001600160a01b03811681036102b25791602435916044359067ffffffffffffffff82116102b2576109109160040161089f565b9091565b1561091b57565b60405162461bcd60e51b815260206004820152602160248201527f4f6e6c79206f776e65722063616e2063616c6c20746869732066756e6374696f6044820152603760f91b6064820152608490fd5b1561097157565b60405162461bcd60e51b8152602060048201526012602482015271139bdb98d948185b1c9958591e481d5cd95960721b6044820152606490fd5b90601f8019910116810190811067ffffffffffffffff8211176105ef57604052565b92919267ffffffffffffffff82116105ef57604051916109f7601f8201601f1916602001846109ab565b8294818452818301116102b2578281602093845f960137010152565b15610a1a57565b60405162461bcd60e51b815260206004820152602360248201527f496e76616c6964204761732053746174696f6e204f776e6572207369676e617460448201526275726560e81b6064820152608490fd5b908160209103126102b2575180151581036102b25790565b15610a8a57565b60405162461bcd60e51b815260206004820152602a60248201527f454f4120286d616368696e65206f776e65722920616464726573732063616e6e6044820152696f74206265207a65726f60b01b6064820152608490fd5b908060209392818452848401375f828201840152601f01601f1916010190565b90610b5291610b5b935f526002602052610b2360ff60405f2054161561096a565b7f19457468657265756d205369676e6564204d6573736167653a0a3332000000005f52601c52603c5f20610b6e565b90929192610ba8565b5f546001600160a01b0391821691161490565b8151919060418303610b9e57610b979250602082015190606060408401519301515f1a90610c1c565b9192909190565b50505f9160029190565b6004811015610c085780610bba575050565b60018103610bd15763f645eedf60e01b5f5260045ffd5b60028103610bec575063fce698f760e01b5f5260045260245ffd5b600314610bf65750565b6335e2f38360e21b5f5260045260245ffd5b634e487b7160e01b5f52602160045260245ffd5b91907f7fffffffffffffffffffffffffffffff5d576e7357a4501ddfe92f46681b20a08411610c93579160209360809260ff5f9560405194855216868401526040830152606082015282805260015afa156102a7575f516001600160a01b03811615610c8957905f905f90565b505f906001905f90565b5050505f916003919056fe60803461012b57601f61079738819003918201601f19168301916001600160401b0383118484101761012f57808492604094855283398101031261012b57610052602061004b83610143565b9201610143565b6001600160a01b039091169081156100e6576001600160a01b03169081156100a15760018060a01b03195f5416175f5560018060a01b0319600154161760015560405161063f90816101588239f35b60405162461bcd60e51b815260206004820152601960248201527f456e747279506f696e742063616e6e6f74206265207a65726f000000000000006044820152606490fd5b60405162461bcd60e51b815260206004820152601460248201527f4f776e65722063616e6e6f74206265207a65726f0000000000000000000000006044820152606490fd5b5f80fd5b634e487b7160e01b5f52604160045260245ffd5b51906001600160a01b038216820361012b5756fe60806040526004361015610011575f80fd5b5f3560e01c8063636cbe461461030e5780636717e41c146102df5780636c459a28146100a35780638da5cb5b1461007c5763b0d691fe14610050575f80fd5b34610078575f366003190112610078576001546040516001600160a01b039091168152602090f35b5f80fd5b34610078575f366003190112610078575f546040516001600160a01b039091168152602090f35b34610078576080366003190112610078576004356001600160a01b03811681036100785760243567ffffffffffffffff8111610078576100e79036906004016103f3565b916044359260643567ffffffffffffffff81116100785761010c9036906004016103f3565b9060018060a01b0360015416331480156102cc575b15610296576101a29161019c8792835f52600260205261014860ff60405f20541615610421565b60405160208101903060601b82526bffffffffffffffffffffffff198960601b166034820152878a604883013761019160206048838b81018a838201520301808452018261036b565b5190209236916103bd565b90610462565b15610243575f80949381948252600260205260408220600160ff19825416179055826040519384928337810182815203925af13d1561023e573d6101e5816103a1565b906101f3604051928361036b565b81525f60203d92013e5b1561020457005b60405162461bcd60e51b815260206004820152601260248201527115185c99d95d0818d85b1b0819985a5b195960721b6044820152606490fd5b6101fd565b60405162461bcd60e51b815260206004820152602560248201527f496e76616c696420454f4120286d616368696e65206f776e657229207369676e604482015264617475726560d81b6064820152608490fd5b60405162461bcd60e51b815260206004820152600e60248201526d139bdd08185d5d1a1bdc9a5e995960921b6044820152606490fd5b505f546001600160a01b03163314610121565b34610078576020366003190112610078576004355f526002602052602060ff60405f2054166040519015158152f35b346100785760603660031901126100785760243567ffffffffffffffff811161007857366023820112156100785761036161035560209236906024816004013591016103bd565b60443590600435610462565b6040519015158152f35b90601f8019910116810190811067ffffffffffffffff82111761038d57604052565b634e487b7160e01b5f52604160045260245ffd5b67ffffffffffffffff811161038d57601f01601f191660200190565b9291926103c9826103a1565b916103d7604051938461036b565b829481845281830111610078578281602093845f960137010152565b9181601f840112156100785782359167ffffffffffffffff8311610078576020838186019501011161007857565b1561042857565b60405162461bcd60e51b8152602060048201526012602482015271139bdb98d948185b1c9958591e481d5cd95960721b6044820152606490fd5b906104b2916104bb935f52600260205261048360ff60405f20541615610421565b7f19457468657265756d205369676e6564204d6573736167653a0a3332000000005f52601c52603c5f206104ce565b90929192610508565b5f546001600160a01b0391821691161490565b81519190604183036104fe576104f79250602082015190606060408401519301515f1a9061057c565b9192909190565b50505f9160029190565b6004811015610568578061051a575050565b600181036105315763f645eedf60e01b5f5260045ffd5b6002810361054c575063fce698f760e01b5f5260045260245ffd5b6003146105565750565b6335e2f38360e21b5f5260045260245ffd5b634e487b7160e01b5f52602160045260245ffd5b91907f7fffffffffffffffffffffffffffffff5d576e7357a4501ddfe92f46681b20a084116105fe579160209360809260ff5f9560405194855216868401526040830152606082015282805260015afa156105f3575f516001600160a01b038116156105e957905f905f90565b505f906001905f90565b6040513d5f823e3d90fd5b5050505f916003919056fea2646970667358221220f5919b5937101a10fd0b26b6e3d2afad0b7a239d649da3d084efe799b306a65764736f6c634300081c0033a2646970667358221220312c71d818b77176196cd59b67821a051ee0f6a597352d677448b1bb706cdfc364736f6c634300081c0033",
    "sourcePath": "/Users/iredia/source/js/peaq-evm-smart-contracts/contracts/agung/gas-station/GasStaionFactory.sol",
    "compiler": {
        "name": "solc",
        "version": "0.8.28+commit.7893614a"
    },
    "functionHashes": {
        "changeGasStation(address)": "1d0aafe9",
        "deployMachineSmartAccount(address,uint256,bytes)": "471e60b7",
        "executeTransaction(address,address,address,bytes,uint256,bytes,bytes)": "b6c07f03",
        "gasStation()": "dbb602fd",
        "owner()": "8da5cb5b",
        "transferGasStationBalance(address,uint256,bytes)": "02039bef"
    },
    "gasEstimates": {
        "creation": {
            "codeDepositCost": "1045400",
            "executionCost": "infinite",
            "totalCost": "infinite"
        },
        "external": {
            "changeGasStation(address)": "28183",
            "deployMachineSmartAccount(address,uint256,bytes)": "infinite",
            "executeTransaction(address,address,address,bytes,uint256,bytes,bytes)": "infinite",
            "gasStation()": "2382",
            "owner()": "2339",
            "transferGasStationBalance(address,uint256,bytes)": "infinite"
        },
        "internal": {
            "_verifySignature(bytes32,bytes memory,uint256)": "infinite"
        }
    }
}